:100000000C94BC000C94D9000C9402010C943601A1
:100010000C94D9000C94D9000C94D9000C94D900FC
:100020000C94D9000C94D9000C94D9000C94D900EC
:100030000C94D9000C94D9000C94D9000C94D900DC
:100040000C94D9000C94D9000C94D9000C94D900CC
:100050000C94D9010C94D9000C94D9000C94D900BB
:100060000C94D9000C94D9000C94D9000C94D900AC
:100070000C94D9000C94D9000C94D9000C94D9009C
:100080000C94D9000C94D9000C94D9000C94D9008C
:100090000C94D9000C94D9000C94D9000C94D9007C
:1000A0000C94D9000C94D9000C94D9000C94D9006C
:1000B0000C94D9000C94D9000C94D9000C94D9005C
:1000C0000C94D9000C94D9000C94D9000C94D9004C
:1000D0000C94D9000C94D9000C94D9000C94D9003C
:1000E0000C94D9000C94D9000C94D9000C94D9002C
:1000F0000C94D9000C94D9000C94D9000C94D9001C
:100100000C94D9000C94D9000C94D9000C94D9000B
:100110000C94D9000C94D9000C94D9000C94D900FB
:100120000C94D9000C94D9000C94D9000C94D900EB
:100130000C94D9000C94D9000C94D9000C94D900DB
:100140000C94D9000C94D9000C94D9000C94D900CB
:100150000C94D9000C94D9000C94D9000C94D900BB
:100160000C94D9000C94D9000C94D9006364696E86
:100170006F70737578585B0011241FBECFEFD7E204
:10018000DEBFCDBF10E2A0E0B0E2E4E9F0E102C0E2
:1001900005900D92A633B107D9F720E2A6E3B0E2AD
:1001A00001C01D92A434B207E1F70E946A010C94C9
:1001B00048080C940000E0E4F6E080E4818391E1DB
:1001C000968B8583E0E0F6E087E08283108A118ACF
:1001D000128A0895E0E0F2E082E0828390E1918368
:1001E000848308958BEC8093520088E080935000C4
:1001F0008091510083FFFCCF88ED84BF83E0809322
:10020000400008951F920F920FB60F9211248F9302
:100210009F938FE19EE40197F1F700C0000083E017
:1002200080934C068091480684FF10C08091480658
:1002300085FF10C0809136208150809336209F9199
:100240008F910F900FBE0F901F90189580914806C8
:1002500085FFF0CF809136208F5F809336209F916D
:100260008F910F900FBE0F901F9018951F920F92B5
:100270000FB60F9211248F939F938FE19EE4019705
:10028000F1F700C0000083E080934C06809148069F
:1002900085FF10C08091480684FF10C080913620F1
:1002A0008F5F809336209F918F910F900FBE0F909C
:1002B0001F9018958091480684FFF0CF80913620DA
:1002C0008150809336209F918F910F900FBE0F9099
:1002D0001F901895CF93DF93CDB7DEB7C055D109E6
:1002E000CDBFDEBF0E94F2000E940E020E94EA0013
:1002F0000E94DB000E94C7010E94F20188E0809307
:100300003D208CE190E29F938F930E942C020F90EE
:100310000F90EE24E394F12CEC0EFD1E992493949F
:1003200098E2A92E90E2B92E2EE2C22E20E2D22E21
:1003300002E310E224C0880F80933D200E94D10187
:10034000BF92AF920E942C022FEF87E99AE32150CF
:1003500080409040E1F700C00000DF92CF920E9401
:100360002C02FF92EF921F930F930E944002FF9284
:10037000EF921F930F930E942C02CDBFDEBF80919E
:100380003D208830C1F690923D2081E0D7CFE0E853
:10039000F6E08FE0818381E5808B818B828B838B7C
:1003A0000895E0E8F6E094818F70907F892B848334
:1003B00008951F920F920FB60F9211248F93EF930F
:1003C000FF93E0E0F8E0108288E08187E0E4F8E065
:1003D00010828187FF91EF918F910F900FBE0F9048
:1003E0001F901895E0E6F6E081EF828389E5808B27
:1003F000848B858B868B878B08959091A10895FFC0
:10040000FCCF8093A00880E090E008958091A1083F
:1004100087FFFCCF8091A00890E00895E0E4F6E02B
:1004200088E0818384E08283E0EAF8E0138288E157
:10043000848383E0858385EE86838CEB878380E0ED
:1004400090E280933E2090933F208EE090E2809354
:100450004020909341200895A0E0B0E0E2E3F2E074
:100460000C942708FE01359661917191AF0180913E
:100470004020909141200E945402E2E00C944008F8
:10048000A0E0B0E0E6E4F2E00C942708FE01359627
:1004900061917191AF0180913E2090913F200E9427
:1004A000D805E2E00C944008ACE0B0E0EAE5F2E008
:1004B0000C9417087C016B018A01FC0116821782DB
:1004C000838181FFC6C188248394912C8C0E9D1E4C
:1004D000F7019381F60193FD859193FF81916F015F
:1004E000882309F4B2C1853239F493FD859193FFD5
:1004F00081916F01853229F4B70190E00E946F0766
:10050000E7CF512C312C20E02032A8F48B3261F05F
:1005100028F4803251F0833271F40BC08D3239F0FF
:10052000803349F4216028C02260246025C02860FF
:1005300023C0206121C027FD27C0382F30533A3017
:1005400078F426FF06C0FAE05F9E300D1124532E8A
:1005500013C08AE0389E300D1124332E20620CC067
:100560008E3221F426FD71C1206406C08C3611F450
:10057000206802C0883641F4F60193FD859193FF0F
:1005800081916F018111C0CF982F9554933018F04D
:100590009052933028F40C5F1F4FFFE3F9830DC096
:1005A000833631F0833771F0833509F05EC023C0A4
:1005B000F801808189830E5F1F4F44244394512C9E
:1005C000540115C03801F2E06F0E711CF801A080D3
:1005D000B18026FF03C0652D70E002C06FEF7FEF92
:1005E000C5012C870E9424072C0183012C856FE70D
:1005F000262E222218C03801F2E06F0E711CF8017D
:10060000A080B18026FF03C0652D70E002C06FEFAF
:100610007FEFC5012C870E9419072C012C8550E81B
:10062000252E222A830123FC1CC006C0B70180E2CC
:1006300090E00E946F073A94832D90E04816590687
:10064000A8F30FC0F50127FC859127FE81915F017A
:10065000B70190E00E946F0731103A94F1E04F1A11
:1006600051084114510471F7EDC0843611F08936F8
:1006700041F5F80127FF07C0608171818281938174
:100680000C5F1F4F08C060817181882777FD8095BE
:10069000982F0E5F1F4F4FE6B42EB22297FF09C06E
:1006A00090958095709561957F4F8F4F9F4FF0E8A3
:1006B000BF2A2AE030E0A4010E94B607A82EA8189D
:1006C00043C0853731F43FEEB32EB2222AE030E04A
:1006D00024C099EFB92EB2228F36B9F020F48835B4
:1006E00009F0B3C00DC0803721F0883709F0ADC0E4
:1006F00002C020E1B22AB4FE0BC084E0B82A08C0D0
:1007000024FF09C0E6E0BE2A06C028E030E005C0AC
:1007100020E130E002C020E132E0F801B7FE07C07E
:1007200060817181828193810C5F1F4F06C060815F
:10073000718180E090E00E5F1F4FA4010E94B60718
:10074000A82EA818FFE7BF22B6FE0BC02B2D2E7FC8
:10075000A51450F4B4FE0AC0B2FC08C02B2D2E7EA6
:1007600005C07A2C2B2D03C07A2C01C0752C24FFD8
:100770000DC0FE01EA0DF11D8081803311F4297E48
:1007800009C022FF06C07394739404C0822F867838
:1007900009F0739423FD14C020FF0FC05A2C73146A
:1007A00060F4530C5718732C08C0B70180E290E036
:1007B0002C870E946F0773942C857314B0F304C0C8
:1007C000731410F4371801C0312C24FF12C0B70184
:1007D00080E390E02C870E946F072C8522FF1EC0CB
:1007E00021FF03C088E590E002C088E790E0B701F0
:1007F0000CC0822F867891F021FD02C080E201C0FA
:100800008BE227FD8DE2B70190E00E946F0706C0E2
:10081000B70180E390E00E946F075A94A514C0F3DB
:10082000AA94F401EA0DF11DB701808190E00E94C5
:100830006F07A110F5CF06C0B70180E290E00E94DB
:100840006F073A943110F8CF43CEF70126813781F4
:1008500002C02FEF3FEFC9012C96E2E10C94300863
:1008600020FD09C0FC0123FD05C022FF02C07383E7
:100870006283518340830895CF92DF92EF92FF927B
:100880000F931F9344FD10C046FD10C0DB01FC0117
:10089000AA0FBB1FEE1FFF1F1094D1F76A0F7B1F1B
:1008A0008E1F9F1F31E003C033E001C034E0660FAC
:1008B000771F881F991F3150D1F76B017C01C20E41
:1008C000D11CE11CF11C97018601B601C9011F91E1
:1008D0000F91FF90EF90DF90CF9008950F931F93AB
:1008E000CF93DF938C01C8010E942F07EC0197FD85
:1008F00008C00E940607892BB1F7B801CE010E94FB
:100900009B07CE01DF91CF911F910F9108958F9298
:100910009F92AF92CF92DF92EF92FF920F931F932D
:10092000CF93DF93EC01A62E4A01022F0E942F07DE
:10093000AC0155274B32510521F04D32510551F490
:100940000068AA9411F480E063C0CE010E942F07D2
:1009500097FDF9CF102F1D7F302F3073E1F48033D6
:10096000D1F4AA9409F440C0CE010E942F0797FD4C
:100970003BC0883711F0883549F41264AA94A1F17C
:10098000CE010E942F0797FF06C02EC006FF02C0AF
:10099000126001C01261C12CD12C7601282F205386
:1009A000283080F014FF04C0BE010E949B0719C0CC
:1009B0002A3040F016FFF8CF2F7D322F31513630DC
:1009C00098F72750412FC701B6010E943C046B01E4
:1009D0007C011260AA9459F0CE010E942F0797FF64
:1009E000DDCF11FD04C0AFCFC12CD12C760117FF94
:1009F00008C0F094E094D094C094C11CD11CE11CB8
:100A0000F11C212FB701A601C4010E94300481E02E
:100A1000DF91CF911F910F91FF90EF90DF90CF90DA
:100A2000AF909F908F9008956F927F929F92AF9218
:100A3000BF92CF92DF92EF92FF920F931F93CF93CB
:100A4000DF93CDB7DEB7A197CDBFDEBF6C017A01D2
:100A50008901FE01319680E2DF011D928A95E9F756
:100A6000D60113969C9020E030E0A12CA0E0B12CA0
:100A7000CF0141E050E0F80193FC759193FE719134
:100A80008F01711103C000E010E080C07E3519F4C1
:100A90002115310559F1EB2DF0E0E217F3073CF495
:100AA0007D3569F17D3219F4AA2319F103C0A11132
:100AB00001C0A72EE72FE695E695E6953C016E0E60
:100AC000711CF301A72FA7703A0102C0660C771CB6
:100AD000AA95E2F7D301B081BA2BB0837A1559F009
:100AE0007A1510F47F5FE6CF7150E4CFBB24B39446
:100AF00003C0A1E001C0A0E02F5F3F4FBCCFAA23FD
:100B000019F08E8180628E83B11003C0BB24B39430
:100B10000BC0FE013196CE01819620812095219354
:100B2000E817F907D1F7F2CFC60169A30E942F0792
:100B300069A197FD24C0282F269526952695E1E0EA
:100B4000F0E0EC0FFD1FE20FF11D208130E0AC0161
:100B50004770552702C0359527954A95E2F720FD45
:100B600004C0B6010E949B070AC0E114F10419F009
:100B7000D7018D937D016150B12CB1F602C0B11047
:100B800082CFE114F10411F0F7011082C801A1969F
:100B9000CDBFDEBFDF91CF911F910F91FF90EF90FE
:100BA000DF90CF90BF90AF909F907F906F9008950F
:100BB0004F925F927F928F929F92AF92BF92CF920D
:100BC000DF92EF92FF920F931F93CF93DF931F92C9
:100BD000CDB7DEB78C012B017A01FC01168217829A
:100BE000A12CF0C08C2D90E00E940607892B21F0EB
:100BF000C8010E946E04E6C0F5E2CF120AC0F201FD
:100C0000D3FC3591D3FE31912F01353271F455E289
:100C1000C52EC8010E942F0797FDDFC0C81609F432
:100C2000D1C0B8010E949B07DAC03A3241F4D3FC2C
:100C30003591D3FE31912F01BB24B39401C0B12C67
:100C4000712C10C0F2E0BF2A672D70E080E090E0C8
:100C500040E20E943C04762EF201D3FC3591D3FE93
:100C600031912F01232F20532A3060F3B1FE03C0AE
:100C7000711003C0B4C077247A94383619F03C362A
:100C800099F40AC0F201D3FC3591D3FE31912F01C2
:100C9000383651F4F8E0BF2A84E0B82AF201D3FCD8
:100CA0003591D3FE31912F01332309F498C0632F7E
:100CB00070E08CE691E039830E940E073981892B20
:100CC00009F48DC0B0FC07C0F701C080D18082E07C
:100CD000E80EF11C02C0C12CD12C3E3651F4F801B3
:100CE0004681578160E070E02B2DC6010E943004E0
:100CF00069C0333691F4B1FC02C077247394C80103
:100D00000E942F0797FD69C0C114D10419F0F601A4
:100D100081936F017A9499F753C03B3559F492014E
:100D2000A601672DC8010E9414052C01009709F047
:100D300047C041C0C80139830E946E04398197FDC4
:100D40004CC03F3659F128F4343629F1393649F58B
:100D50002AC0333719F0353721F51DC0C8010E946C
:100D60002F074C0197FD11C00E940607892B29F01F
:100D7000B801C4010E949B0708C0C114D10419F036
:100D8000F60181926F017A9449F7C114D104C1F040
:100D9000F601108215C0F0E2BF2A05C080E1B82A32
:100DA00002C090E4B92A2B2DA601672DC8010E942C
:100DB0008704811105C0F8018381807371F40FC02D
:100DC000B0FEA394F801D380F201D3FCC590D3FE0A
:100DD000C1902F01C11006CF02C0AA2019F02A2D00
:100DE00030E002C02FEF3FEFC9010F90DF91CF91AC
:100DF0001F910F91FF90EF90DF90CF90BF90AF9039
:100E00009F908F907F905F904F90089591110CC1AB
:100E1000803219F089508550D0F70895FC01059073
:100E2000061621F00020D9F7C00108953197CF01AF
:100E30000895FC010590615070400110D8F780952D
:100E400090958E0F9F1F0895FC0161507040019096
:100E50000110D8F7809590958E0F9F1F0895CF931E
:100E6000DF93EC013B8130FF34C036FF0AC03F7B8B
:100E70003B838E819F8101968E839F832A8130E000
:100E80002AC032FF0FC0E881F9818081992787FD50
:100E90009095009719F430623B831BC03196E8832C
:100EA000F9830EC0EA85FB85099597FF09C02B8160
:100EB000019611F480E101C080E2822B8B8309C08E
:100EC0002E813F812F5F3F4F2E833F839C0133272D
:100ED00002C02FEF3FEFC901DF91CF9108950F932B
:100EE0001F93CF93DF938C01EB018B8181FD03C0B6
:100EF0000FEF1FEF1AC082FF0DC02E813F818C8142
:100F00009D812817390764F4E881F9810193E8830A
:100F1000F98306C0E885F985802F0995892B41F76B
:100F20008E819F8101968E839F83C801DF91CF912F
:100F30001F910F910895FB01238120FF13C026FD0F
:100F400011C08F3F3FEF930769F082832F7D2064AC
:100F500023832681378121503109268337839C01E1
:100F6000332702C02FEF3FEFC9010895FA01AA27E6
:100F7000283051F1203181F1E8946F936E7F6E5FDC
:100F80007F4F8F4F9F4FAF4FB1E03ED0B4E03CD08A
:100F9000670F781F891F9A1FA11D680F791F8A1F6D
:100FA000911DA11D6A0F711D811D911DA11D20D0D4
:100FB00009F468943F912AE0269F11243019305D8E
:100FC0003193DEF6CF010895462F4770405D41937F
:100FD000B3E00FD0C9F7F6CF462F4F70405D4A33CC
:100FE00018F0495D31FD4052419302D0A9F7EACF94
:100FF000B4E0A6959795879577956795BA95C9F7C3
:1010000000976105710508959B01AC010A2E0694B5
:101010005795479537952795BA95C9F7620F731F6E
:10102000841F951FA01D08959927882708952F9242
:101030003F924F925F926F927F928F929F92AF9268
:10104000BF92CF92DF92EF92FF920F931F93CF93B5
:10105000DF93CDB7DEB7CA1BDB0BCDBFDEBF099474
:101060002A88398848885F846E847D848C849B8438
:10107000AA84B984C884DF80EE80FD800C811B8146
:10108000AA81B981CE0FD11DCDBFDEBFED0108957C
:04109000F894FFCF02
:101094000000000100000000000006020000000043
:1010A400000200000000FD01000000000A0D416381
:1010B40074697665210A0D004154434E0D002B2BB3
:0610C4002B002573000063
:00000001FF
