S016000067616D65636F6E74726F6C6C65722E7372656330
S11300000C94B6000C94D3000C94ED020C942103D0
S11300100C94D3000C94D3000C94D3000C94D30010
S11300200C94D3000C94D3000C94D3000C94D30000
S11300300C94D3000C94D3000C94D3000C94D300F0
S11300400C94D3000C94D3000C94D3000C94D300E0
S11300500C944E050C94D3000C94D3000C94D30050
S11300600C94D3000C94D3000C94D3000C94D300C0
S11300700C94D3000C94D3000C94D3000C94D300B0
S11300800C94D3000C94D3000C94D3000C94D300A0
S11300900C94D3000C94D3000C94D3000C94D30090
S11300A00C94D3000C94D3000C94D3000C94D30080
S11300B00C94D3000C94D3000C94D3000C94D30070
S11300C00C94D3000C94D3000C94D3000C94D30060
S11300D00C94D3000C94D3000C94D3000C94D30050
S11300E00C94D3000C94D3000C94D3000C94D30040
S11300F00C94D3000C94D3000C94D3000C94D30030
S11301000C94D3000C94D3000C94D3000C94D3001F
S11301100C94D3000C94D3000C94D3000C94D3000F
S11301200C94D3000C94D3000C94D3000C94D300FF
S11301300C94D3000C94D3000C94D3000C94D300EF
S11301400C94D3000C94D3000C94D3000C94D300DF
S11301500C94D3000C94D3000C94D3000C94D300CF
S11301600C94D3000C94D3000C94D30011241FBE20
S1130170CFEFD7E2DEBFCDBF11E2A0E0B0E2E6E20E
S1130180F3E102C005900D92AE31B107D9F721E237
S1130190AEE1B1E201C01D92A433B207E1F70E94BF
S11301A09C030C9491090C940000E0E4F6E080E4D4
S11301B0818391E1968B8583E0E0F6E087E082839A
S11301C0108A118A128A089564E070E080E090E059
S11301D00C94180164E070E081E090E00C94180144
S11301E064E070E082E090E00C9418019C01220F1E
S11301F0331F220F331F280F391F36952795285593
S11302003740C90108959C01220F331F220F331F69
S1130210280F391F3695279529533840C901089569
S1130220E0E0F2E082E0828390E1918384830895A8
S1130230645071099B01277033278F709927880FA9
S1130240991F880F991F880F991F822B8093210271
S11302506F3F7F4F99F083E88093200281E0809381
S1130260060285E080930002809106028823E1F370
S11302702091100230911102C901089581E8809300
S11302802002ECCF109222211092232110922421DB
S11302901092252108958091222190912321A091EB
S11302A02421B09125210196A11DB11D8093222105
S11302B090932321A0932421B093252121E12F930E
S11302C024E52F9322E02F931F92BF93AF939F9324
S11302D08F9384E290E29F938F930E94D0068DB710
S11302E09EB70A968DBF9EBF08958091222190915A
S11302F02321A0912421B09125210196A11DB11D96
S11303008093222190932321A0932421B09325212B
S113031021E12F9324E52F931F921F92BF93AF9354
S11303209F938F9384E290E29F938F930E94D006D1
S11303308DB79EB70A968DBF9EBF089580912221E6
S113034090912321A0912421B09125210196A11DF2
S1130350B11D8093222190932321A0932421B09353
S11303602521BF93AF939F938F9384E390E29F9350
S11303708F930E94D0060F900F900F900F900F90C4
S11303800F9008958091222190912321A0912421FE
S1130390B09125210196A11DB11D80932221909336
S11303A02321A0932421B0932521BF93AF939F933E
S11303B08F9381E690E29F938F930E94D0060F90D3
S11303C00F900F900F900F900F900895809122211D
S11303D090912321A0912421B09125210196A11D62
S11303E0B11D8093222190932321A0932421B093C3
S11303F02521BF93AF939F938F9381E790E29F93BF
S11304008F930E94D0060F900F900F900F900F9033
S11304100F9008958091222190912321A09124216D
S1130420B09125210196A11DB11D809322219093A5
S11304302321A0932421B0932521BF93AF939F93AD
S11304408F938DE890E29F938F930E94D0060F9034
S11304500F900F900F900F900F900895AF92BF924E
S1130460CF92DF92EF92FF920F931F93CF93DF937C
S1130470DB01EA01F901D080C180B280A380188138
S11304800981FA80EB806C9111967C9111971296F8
S1130490CC9112971396DC91FC0120813181428129
S11304A053818091222190912321A0912421B09104
S11304B025210196A11DB11D809322219093232112
S11304C0A0932421B0932521AF92BF92CF92DF92C3
S11304D0EF92FF920F931F93DF93CF937F936F93CA
S11304E05F934F933F932F931F9221E02F93BF93DA
S11304F0AF939F938F938BE990E29F938F930E9486
S1130500D0068DB79EB748968DBF9EBFDF91CF9121
S11305101F910F91FF90EF90DF90CF90BF90AF901D
S113052008954091222150912321609124217091BA
S113053025214F5F5F4F6F4F7F4F40932221509390
S1130540232160932421709325219F938F937F937C
S11305506F935F934F938AEC90E29F938F930E94E3
S1130560D0068DB79EB708968DBF9EBF0895409163
S113057022215091232160912421709125214F5FE4
S11305805F4F6F4F7F4F40932221509323216093FD
S11305902421709325219F938F937F936F935F936F
S11305A04F9384EF90E29F938F930E94D0068DB770
S11305B09EB708968DBF9EBF08958BEC8093520022
S11305C088E0809350008091510083FFFCCF88ED38
S11305D084BF83E08093400008951F920F920FB66A
S11305E00F9211248F939F938FE19EE40197F1F76B
S11305F000C0000083E080934C068091480684FF8D
S113060010C08091480685FF10C08091262181503A
S1130610809326219F918F910F900FBE0F901F9072
S113062018958091480685FFF0CF809126218F5F31
S1130630809326219F918F910F900FBE0F901F9052
S113064018951F920F920FB60F9211248F939F93B8
S11306508FE19EE40197F1F700C0000083E08093EE
S11306604C068091480685FF10C08091480684FF9F
S113067010C0809126218F5F809326219F918F91B6
S11306800F900FBE0F901F9018958091480684FF1D
S1130690F0CF809126218150809326219F918F91C4
S11306A00F900FBE0F901F9018950E949E012FEF80
S11306B086E791E0215080409040E1F700C00000BF
S11306C00E94C2012FEF86E791E0215080409040C4
S11306D0E1F700C000000E94E6012FEF86E791E0F9
S11306E0215080409040E1F700C000000E940A02BF
S11306F02FEF86E791E0215080409040E1F700C061
S1130700000084E690E00E9491022FEF86E791E0DA
S1130710215080409040E1F700C0000080E090E06C
S11307200E94B7022FEF86E791E02150804090406D
S1130730E1F700C000000895CF93DF93CDB7DEB793
S11307402897CDBFDEBF0E94DD020E9494050E945F
S113075010010E94D5000E9427050E9467050E948F
S1130760390510922D210E9442010E945503E12C6B
S1130770F12C08E31FEF0E947205811187C081E00C
S1130780E816F104C1F70E94E400809329219093B4
S11307902A210E94EA0080932B2190932C210E940D
S11307A0F000809327219093282180912921909112
S11307B02A210E94F6006C0180912B2190912C211A
S11307C00E9403017C01C60188539F4F81399140E7
S11307D008F406C1B601685C7109882777FD809525
S11307E0982F0E94200620E030E04AE754E40E945B
S11307F0B6055B016C01862F9B2DAC2DBD2D8D8321
S11308009E83AF83B887C70188539F4F8139914036
S113081008F4D6C0B8016E197F09882777FD809542
S1130820982F0E94200620E030E04AE754E40E941A
S1130830B605FB01462F5F2F682F792F49835A8312
S11308406B837C8320E030E0A901BF010E94B205E4
S1130850882309F4B9C02EE131E2A901BE016F5F1A
S11308607F4FCE0105960E942E028FEF96E721E07E
S1130870815090402040E1F700C00000EE24E39452
S1130880F12C0E947205882309F479CF0E94720525
S1130890843009F4BFC008F0ACC0813091F08230DC
S11308A009F06DCF91E0E916F10409F064CF37C087
S11308B02FE788E391E0215080409040E1F700C0A9
S11308C000000E947205813099F3EA94EF2809F43C
S11308D0A7C00E944B018FE39CE90197F1F700C088
S11308E0000081E00E9431059FEF26E781E09150EE
S11308F020408040E1F700C0000011C020E030E259
S11309004EE151E2BA01CA010E942E022FEF86E79E
S113091091E0215080409040E1F700C000000E9427
S11309207205823059F30E947205883051F524E033
S113093030E24EE151E2BA01CA010E942E028FEF69
S113094096E721E0815090402040E1F700C000008C
S11309500E947205883059F30E947205803159F55E
S11309602EE131E240E050E2B901C9010E942E02B9
S11309709FEF26E781E0915020408040E1F700C0DE
S113098000000E947205803159F30E947205843080
S113099009F0F9CE2EE131E244E050E2B901C90197
S11309A00E942E022FEF86E791E021508040904074
S11309B0E1F700C000000E947205843059F3E3CED1
S11309C019821A821B821C8220E030E0A9016A2D60
S11309D07B2D8C2D9D2D0E94B20581113CCF45CFDE
S11309E01D821E821F821886A12CB12CC12CD12CF1
S11309F00ACF883049F0803109F0C1CE81E0E81691
S1130A00F10409F0B8CEBDCF21E0E216F10409F0FB
S1130A10B2CE9ECF91E0E916F10409F0ACCECBCF73
S1130A200E9475018FE39CE90197F1F700C0000073
S1130A3080E00E9431059FEF26E781E0915020403D
S1130A408040E1F700C00000E12CF12C94CEE0E8F6
S1130A50F6E08FE0818381E5808B818B828B838BB1
S1130A600895E0E8F6E094818F70907F892B848369
S1130A700895E0E4F6E081E0818391E1908BE0E089
S1130A80F8E0108293E1918313821482E0E4F8E0A9
S1130A901082118213821482868308951F920F920A
S1130AA00FB60F9211248F93EF93FF93E0E0F8E0D9
S1130AB0108288E08187E0E4F8E010828187FF916A
S1130AC0EF918F910F900FBE0F901F901895E0E655
S1130AD0F6E081EF828389E5808B848B858B868B1E
S1130AE0878B0895E0E6F6E080859085807F869583
S1130AF0869586959170892B08959091A10895FF0C
S1130B00FCCF8093A00880E090E008958091A10834
S1130B1087FFFCCF2091A0082D3019F030E0C901E7
S1130B2008952AE030E0FBCFE0E4F6E088E081833A
S1130B3084E08283E0EAF8E0138288E1848383E03E
S1130B40858385EE86838CEB878388E090E28093AF
S1130B502E2190932F2186E190E28093302190936F
S1130B6031210895A8D008F481E008950CD0DEC0A6
S1130B70D6D040F0CDD030F021F45F3F19F0BFC0A3
S1130B80511108C1C2C0E3D098F39923C9F3552386
S1130B90B1F3951B550BBB27AA276217730784076C
S1130BA038F09F5F5F4F220F331F441FAA1FA9F322
S1130BB033D00E2E3AF0E0E830D091505040E69514
S1130BC0001CCAF729D0FE2F27D0660F771F881F75
S1130BD0BB1F261737074807AB07B0E809F0BB0B64
S1130BE0802DBF01FF2793585F4F2AF09E3F510588
S1130BF068F085C0CFC05F3FECF3983EDCF3869588
S1130C0077956795B795F7959F5FC9F7880F911DFD
S1130C109695879597F90895E1E0660F771F881FE9
S1130C20BB1F621773078407BA0720F0621B730B9C
S1130C30840BBA0BEE1F88F7E0950895E89409C079
S1130C4097FB3EF490958095709561957F4F8F4FFB
S1130C509F4F9923A9F0F92F96E9BB279395F69511
S1130C60879577956795B795F111F8CFFAF4BB0F8F
S1130C7011F460FF1BC06F5F7F4F8F4F9F4F16C0F3
S1130C80882311F096E911C0772321F09EE8872F7D
S1130C90762F05C0662371F096E8862F70E060E039
S1130CA02AF09A95660F771F881FDAF7880F9695B2
S1130CB0879597F90895990F0008550FAA0BE0E856
S1130CC0FEEF16161706E807F907C0F0121613060A
S1130CD0E407F50798F0621B730B840B950B39F44A
S1130CE00A2661F0232B242B252B21F408950A26B0
S1130CF009F4A140A6958FEF811D811D089597F9F0
S1130D009F6780E870E060E008959FEF80EC0895AD
S1130D1000240A94161617061806090608950024D6
S1130D200A9412161306140605060895092E039450
S1130D30000C11F4882352F0BB0F40F4BF2B11F4C4
S1130D4060FF04C06F5F7F4F8F4F9F4F089557FD23
S1130D509058440F551F59F05F3F71F04795880F25
S1130D6097FB991F61F09F3F79F0879508951216BC
S1130D7013061406551FF2CF4695F1DF08C0161668
S1130D8017061806991FF1CF869571056105089419
S1130D900895E894BB2766277727CB0197F9089530
S1130DA0A0E0B0E0E6EDF6E00C947009FE013596A3
S1130DB061917191AF0180913021909131210E9414
S1130DC0E406E2E00C948909ACE0B0E0EAEEF6E077
S1130DD00C9460097C016B018A01FC011682178264
S1130DE0838181FFC6C188248394912C8C0E9D1E1F
S1130DF0F7019381F60193FD859193FF81916F0132
S1130E00882309F4B2C1853239F493FD859193FFA7
S1130E1081916F01853229F4B70190E00E94D608D0
S1130E20E7CF512C312C20E02032A8F48B3261F032
S1130E3028F4803251F0833271F40BC08D3239F0D2
S1130E40803349F4216028C02260246025C02860D2
S1130E5023C0206121C027FD27C0382F30533A30EA
S1130E6078F426FF06C0FAE05F9E300D1124532E5D
S1130E7013C08AE0389E300D1124332E20620CC03A
S1130E808E3221F426FD71C1206406C08C3611F423
S1130E90206802C0883641F4F60193FD859193FFE2
S1130EA081916F018111C0CF982F9554933018F020
S1130EB09052933028F40C5F1F4FFFE3F9830DC069
S1130EC0833631F0833771F0833509F05EC023C077
S1130ED0F801808189830E5F1F4F44244394512C71
S1130EE0540115C03801F2E06F0E711CF801A080A6
S1130EF0B18026FF03C0652D70E002C06FEF7FEF65
S1130F00C5012C870E94CB082C0183012C856FE737
S1130F10262E222218C03801F2E06F0E711CF8014F
S1130F20A080B18026FF03C0652D70E002C06FEF82
S1130F307FEFC5012C870E94C0082C012C8550E846
S1130F40252E222A830123FC1CC006C0B70180E29F
S1130F5090E00E94D6083A94832D90E048165906F2
S1130F60A8F30FC0F50127FC859127FE81915F014D
S1130F70B70190E00E94D60831103A94F1E04F1A7C
S1130F8051084114510471F7EDC0843611F08936CB
S1130F9041F5F80127FF07C0608171818281938147
S1130FA00C5F1F4F08C060817181882777FD809591
S1130FB0982F0E5F1F4F4FE6B42EB22297FF09C041
S1130FC090958095709561957F4F8F4F9F4FF0E876
S1130FD0BF2A2AE030E0A4010E940209A82EA81822
S1130FE043C0853731F43FEEB32EB2222AE030E01D
S1130FF024C099EFB92EB2228F36B9F020F4883587
S113100009F0B3C00DC0803721F0883709F0ADC0B6
S113101002C020E1B22AB4FE0BC084E0B82A08C0A2
S113102024FF09C0E6E0BE2A06C028E030E005C07F
S113103020E130E002C020E132E0F801B7FE07C051
S113104060817181828193810C5F1F4F06C0608132
S1131050718180E090E00E5F1F4FA4010E9402099D
S1131060A82EA818FFE7BF22B6FE0BC02B2D2E7F9B
S1131070A51450F4B4FE0AC0B2FC08C02B2D2E7E79
S113108005C07A2C2B2D03C07A2C01C0752C24FFAB
S11310900DC0FE01EA0DF11D8081803311F4297E1B
S11310A009C022FF06C07394739404C0822F86780B
S11310B009F0739423FD14C020FF0FC05A2C73143D
S11310C060F4530C5718732C08C0B70180E290E009
S11310D02C870E94D60873942C857314B0F304C033
S11310E0731410F4371801C0312C24FF12C0B70157
S11310F080E390E02C870E94D6082C8522FF1EC036
S113110021FF03C088E590E002C088E790E0B701C2
S11311100CC0822F867891F021FD02C080E201C0CC
S11311208BE227FD8DE2B70190E00E94D60806C04D
S1131130B70180E390E00E94D6085A94A514C0F346
S1131140AA94F401EA0DF11DB701808190E00E9498
S1131150D608A110F5CF06C0B70180E290E00E9446
S1131160D6083A943110F8CF43CEF701268137815F
S113117002C02FEF3FEFC9012C96E2E10C947909EC
S1131180FC010590615070400110D8F7809590954E
S11311908E0F9F1F0895FC01615070400190011053
S11311A0D8F7809590958E0F9F1F08950F931F93E6
S11311B0CF93DF938C01EB018B8181FD03C00FEF93
S11311C01FEF1AC082FF0DC02E813F818C819D814B
S11311D02817390764F4E881F9810193E883F983D6
S11311E006C0E885F985802F0995892B41F78E8102
S11311F09F8101968E839F83C801DF91CF911F91B8
S11312000F910895FA01AA27283051F1203181F174
S1131210E8946F936E7F6E5F7F4F8F4F9F4FAF4FFA
S1131220B1E03ED0B4E03CD0670F781F891F9A1F0D
S1131230A11D680F791F8A1F911DA11D6A0F711DC1
S1131240811D911DA11D20D009F468943F912AE0CD
S1131250269F11243019305D3193DEF6CF010895B5
S1131260462F4770405D4193B3E00FD0C9F7F6CFE6
S1131270462F4F70405D4A3318F0495D31FD4052AE
S1131280419302D0A9F7EACFB4E0A6959795879544
S113129077956795BA95C9F7009761057105089523
S11312A09B01AC010A2E06945795479537952795CF
S11312B0BA95C9F7620F731F841F951FA01D089567
S11312C02F923F924F925F926F927F928F929F9252
S11312D0AF92BF92CF92DF92EF92FF920F931F9340
S11312E0CF93DF93CDB7DEB7CA1BDB0BCDBFDEBF19
S11312F009942A88398848885F846E847D848C8424
S11313009B84AA84B984C884DF80EE80FD800C812C
S11313101B81AA81B981CE0FD11DCDBFDEBFED01E6
S10913200895F894FFCFCC
S11313263333733F333373BF000000010000000002
S113133600008605000000000002000000007D0594
S11313460000000041542A5245463D256C642C2574
S11313566C640D0041542A434F4E4649473D256C63
S1131366642C2267656E6572616C3A6E617664619F
S113137674615F64656D6F222C2254525545220DAB
S11313860041542A504D4F44453D256C642C320D82
S11313960041542A4D4953433D256C642C322C326A
S11313A6302C323030302C333030300D0041542A5A
S11313B6465452494D3D256C640D0041542A504310
S11313C64D443D256C642C25642C256C642C256CBD
S11313D6642C256C642C256C640D0041542A434FFF
S11313E64D5744473D25646C0D0041542A434F4EE6
S11313F64649473D256C642C22636F6E74726F6C8C
S11314063A616C7469747564655F6D6178222C2227
S11314162564220041542A434F4E4649473D256CD4
S1131426642C22636F6E74726F6C3A616C746974A7
S11114367564655F6D696E222C2225642200A8
S9030000FC
