S016000067616D65636F6E74726F6C6C65722E7372656330
S11300000C94B6000C94D3000C9455010C94890103
S11300100C94D3000C94D3000C94D3000C94D30010
S11300200C94D3000C94D3000C94D3000C94D30000
S11300300C94D3000C94D3000C94D3000C94D300F0
S11300400C94D3000C94D3000C94D3000C94D300E0
S11300500C9401020C94D3000C94D3000C94D300A0
S11300600C94D3000C94D3000C94D3000C94D300C0
S11300700C94D3000C94D3000C94D3000C94D300B0
S11300800C94D3000C94D3000C94D3000C94D300A0
S11300900C94D3000C94D3000C94D3000C94D30090
S11300A00C94D3000C94D3000C94D3000C94D30080
S11300B00C94D3000C94D3000C94D3000C94D30070
S11300C00C94D3000C94D3000C94D3000C94D30060
S11300D00C94D3000C94D3000C94D3000C94D30050
S11300E00C94D3000C94D3000C94D3000C94D30040
S11300F00C94D3000C94D3000C94D3000C94D30030
S11301000C94D3000C94D3000C94D3000C94D3001F
S11301100C94D3000C94D3000C94D3000C94D3000F
S11301200C94D3000C94D3000C94D3000C94D300FF
S11301300C94D3000C94D3000C94D3000C94D300EF
S11301400C94D3000C94D3000C94D3000C94D300DF
S11301500C94D3000C94D3000C94D3000C94D300CF
S11301600C94D3000C94D3000C94D30011241FBE20
S1130170CFEFD7E2DEBFCDBF10E2A0E0B0E2E4E40F
S1130180FAE002C005900D92AA35B107D9F720E232
S1130190AAE5B0E201C01D92A237B207E1F70E94BE
S11301A0BD010C9420050C940000E0E4F6E080E42A
S11301B0818391E1968B8583E0E0F6E087E082839A
S11301C0108A118A128A0895E0E0F2E082E08283C4
S11301D090E191838483089510925A2010925B20B9
S11301E0109260201092612010926220109263207D
S11301F010925C2010925D2010925E2010925F207D
S1130200089580915A2090915B20019680935A2002
S113021090935B2020E030E23F932F939F938F9342
S113022082E390E29F938F930E945F028BE49DE1AF
S11302300197F1F700C000000F900F900F900F90FE
S11302400F900F90089580915A2090915B20019611
S113025080935A2090935B202BE030E23F932F93BE
S11302609F938F9382E390E29F938F930E945F0208
S11302708BE49DE10197F1F700C000000F900F900F
S11302800F900F900F900F9008958BEC8093520075
S113029088E0809350008091510083FFFCCF88ED6B
S11302A084BF83E08093400008951F920F920FB69D
S11302B00F9211248F939F938FE19EE40197F1F79E
S11302C000C0000083E080934C068091480684FFC0
S11302D010C08091480685FF10C080916420815031
S11302E0809364209F918F910F900FBE0F901F9069
S11302F018958091480685FFF0CF809164208F5F28
S1130300809364209F918F910F900FBE0F901F9048
S113031018951F920F920FB60F9211248F939F93EB
S11303208FE19EE40197F1F700C0000083E0809321
S11303304C068091480685FF10C08091480684FFD2
S113034010C0809164208F5F809364209F918F916F
S11303500F900FBE0F901F9018958091480684FF50
S1130360F0CF809164208150809364209F918F917D
S11303700F900FBE0F901F9018950E9445010E9488
S113038041020E94E4000E94D5000E94EF010E94F5
S11303901A0210926B200E94EC00C1E0D0E011E040
S11303A00AC0C130D105A9F00E94230110926B202C
S11303B080E00E94F9010E942502813091F70E9499
S11303C025028130E1F3D195C195D109C130D10520
S11303D059F70E94010110936B2081E0EACFE0E815
S11303E0F6E08FE0818381E5808B818B828B838B28
S11303F00895E0E8F6E094818F70907F892B8483E0
S113040008951F920F920FB60F9211248F93EF93BA
S1130410FF93E0E0F8E0108288E08187E0E4F8E010
S113042010828187FF91EF918F910F900FBE0F90F3
S11304301F901895E0E6F6E081EF828389E5808BD2
S1130440848B858B868B878B0895E0E6F6E0808528
S11304509085807F8695869586959170892B0895E1
S11304609091A10895FFFCCF8093A00880E090E0D4
S113047008958091A10887FFFCCF8091A00890E0A7
S11304800895E0E4F6E088E0818384E08283E0EA92
S1130490F8E0138288E1848383E0858385EE868394
S11304A08CEB878386E190E280936C2090936D209F
S11304B084E290E280936E2090936F200895A0E0F0
S11304C0B0E0E5E6F2E00C94FF04FE01359661919C
S11304D07191AF0180916E2090916F200E94730200
S11304E0E2E00C941805ACE0B0E0E9E7F2E00C942B
S11304F0EF047C016B018A01FC011682178283815F
S113050081FFC6C188248394912C8C0E9D1EF70113
S11305109381F60193FD859193FF81916F01882367
S113052009F4B2C1853239F493FD859193FF819129
S11305306F01853229F4B70190E00E946504E7CF8A
S1130540512C312C20E02032A8F48B3261F028F4B5
S1130550803251F0833271F40BC08D3239F0803324
S113056049F4216028C02260246025C0286023C08B
S1130570206121C027FD27C0382F30533A3078F44A
S113058026FF06C0FAE05F9E300D1124532E13C0DF
S11305908AE0389E300D1124332E20620CC08E3236
S11305A021F426FD71C1206406C08C3611F4206844
S11305B002C0883641F4F60193FD859193FF819141
S11305C06F018111C0CF982F9554933018F0905239
S11305D0933028F40C5F1F4FFFE3F9830DC083367B
S11305E031F0833771F0833509F05EC023C0F80120
S11305F0808189830E5F1F4F44244394512C5401FE
S113060015C03801F2E06F0E711CF801A080B180B2
S113061026FF03C0652D70E002C06FEF7FEFC501B8
S11306202C870E945A042C0183012C856FE7262E07
S1130630222218C03801F2E06F0E711CF801A0806C
S1130640B18026FF03C0652D70E002C06FEF7FEF1D
S1130650C5012C870E944F042C012C8550E8252EBF
S1130660222A830123FC1CC006C0B70180E290E06B
S11306700E9465043A94832D90E048165906A8F325
S11306800FC0F50127FC859127FE81915F01B70119
S113069090E00E94650431103A94F1E04F1A510839
S11306A04114510471F7EDC0843611F0893641F5D7
S11306B0F80127FF07C060817181828193810C5FFB
S11306C01F4F08C060817181882777FD8095982F1E
S11306D00E5F1F4F4FE6B42EB22297FF09C09095CC
S11306E08095709561957F4F8F4F9F4FF0E8BF2A9B
S11306F02AE030E0A4010E949104A82EA81843C067
S1130700853731F43FEEB32EB2222AE030E024C024
S113071099EFB92EB2228F36B9F020F4883509F05A
S1130720B3C00DC0803721F0883709F0ADC002C0D6
S113073020E1B22AB4FE0BC084E0B82A08C024FF2A
S113074009C0E6E0BE2A06C028E030E005C020E18A
S113075030E002C020E132E0F801B7FE07C060815A
S11307607181828193810C5F1F4F06C0608171810A
S113077080E090E00E5F1F4FA4010E949104A82E18
S1130780A818FFE7BF22B6FE0BC02B2D2E7FA514A1
S113079050F4B4FE0AC0B2FC08C02B2D2E7E05C056
S11307A07A2C2B2D03C07A2C01C0752C24FF0DC08C
S11307B0FE01EA0DF11D8081803311F4297E09C008
S11307C022FF06C07394739404C0822F867809F0C4
S11307D0739423FD14C020FF0FC05A2C731460F4CB
S11307E0530C5718732C08C0B70180E290E02C8793
S11307F00E94650473942C857314B0F304C07314BD
S113080010F4371801C0312C24FF12C0B70180E363
S113081090E02C870E9465042C8522FF1EC021FFD6
S113082003C088E590E002C088E790E0B7010CC0FF
S1130830822F867891F021FD02C080E201C08BE214
S113084027FD8DE2B70190E00E94650406C0B70160
S113085080E390E00E9465045A94A514C0F3AA941E
S1130860F401EA0DF11DB701808190E00E94650456
S1130870A110F5CF06C0B70180E290E00E946504A4
S11308803A943110F8CF43CEF7012681378102C064
S11308902FEF3FEFC9012C96E2E10C940805FC010F
S11308A00590615070400110D8F7809590958E0F97
S11308B09F1F0895FC016150704001900110D8F70A
S11308C0809590958E0F9F1F08950F931F93CF933C
S11308D0DF938C01EB018B8181FD03C00FEF1FEFD0
S11308E01AC082FF0DC02E813F818C819D81281703
S11308F0390764F4E881F9810193E883F98306C038
S1130900E885F985802F0995892B41F78E819F8190
S113091001968E839F83C801DF91CF911F910F9120
S11309200895FA01AA27283051F1203181F1E89481
S11309306F936E7F6E5F7F4F8F4F9F4FAF4FB1E0CE
S11309403ED0B4E03CD0670F781F891F9A1FA11DC9
S1130950680F791F8A1F911DA11D6A0F711D811DCA
S1130960911DA11D20D009F468943F912AE0269F8F
S113097011243019305D3193DEF6CF010895462FEE
S11309804770405D4193B3E00FD0C9F7F6CF462FCF
S11309904F70405D4A3318F0495D31FD4052419338
S11309A002D0A9F7EACFB4E0A695979587957795F5
S11309B06795BA95C9F700976105710508959B017C
S11309C0AC010A2E06945795479537952795BA9505
S11309D0C9F7620F731F841F951FA01D08952F92DE
S11309E03F924F925F926F927F928F929F92AF92BB
S11309F0BF92CF92DF92EF92FF920F931F93CF9308
S1130A00DF93CDB7DEB7CA1BDB0BCDBFDEBF0994C6
S1130A102A88398848885F846E847D848C849B848A
S1130A20AA84B984C884DF80EE80FD800C811B8198
S1130A30AA81B981CE0FD11DCDBFDEBFED010895CE
S1070A40F894FFCF54
S1130A442C323930373138323038002C323930379F
S1130A543137363936000000000100000000000080
S1130A64390200000000000200000000300200000F
S1130A74000041542A5245463D256425730D004126
S1130A84542A50434D443D25642C312C25662C2591
S10D0A94662C25662C25660D000073
S9030000FC
