S016000067616D65636F6E74726F6C6C65722E7372656330
S11300000C94B6000C94D3000C942E010C94500163
S11300100C94D3000C94D3000C94D3000C94D30010
S11300200C94D3000C94D3000C94D3000C94D30000
S11300300C94D3000C94D3000C94D3000C94D300F0
S11300400C94D3000C94D3000C94D3000C94D300E0
S11300500C94D3000C94D3000C94D3000C94D300D0
S11300600C94D3000C94D3000C94D3000C94D300C0
S11300700C94D3000C94D3000C94D3000C94D300B0
S11300800C94D3000C94D3000C94D3000C94D300A0
S11300900C94D3000C94D3000C94D3000C94D30090
S11300A00C94D3000C94D3000C94D3000C94D30080
S11300B00C94D3000C94D3000C94D3000C94D30070
S11300C00C94D3000C94D3000C94D3000C94D30060
S11300D00C94D3000C94D3000C94D3000C94D30050
S11300E00C94D3000C94D3000C94D3000C94D30040
S11300F00C94D3000C94D3000C94D3000C94D30030
S11301000C94D3000C94D3000C94D3000C94D3001F
S11301100C94D3000C94D3000C94D3000C94D3000F
S11301200C94D3000C94D3000C94D3000C94D300FF
S11301300C94D3000C94D3000C94D3000C94D300EF
S11301400C94D3000C94D3000C94D3000C94D300DF
S11301500C94D3000C94D3000C94D3000C94D300CF
S11301600C94D3000C94D3000C94D30011241FBE20
S1130170CFEFD7E2DEBFCDBF10E2A0E0B0E2ECE00B
S1130180FDE002C005900D92A634B107D9F720E234
S1130190A6E4B0E201C01D92A635B207E1F70E94C1
S11301A084010C9484060C940000E0E4F6E080E4FE
S11301B0818391E1968B858387E0E0E0F6E082839A
S11301C00895BC0180E090E00E94060320E030E046
S11301D0A9010E9471020E94D502CB010895BC01BD
S11301E080E090E00E94060320E030E0A9010E9434
S11301F071020E94D502CB010895BC0180E090E019
S11302000E94060320E030E0A9010E9471020E94CE
S1130210D502CB010895E0E0F2E0128280E181830F
S113022008958BEC8093520088E080935000809175
S1130230510083FFFCCF88ED84BF83E080934000AE
S11302400895E0E4F6E080E3828380E1848B858B8B
S113025095E09187828780E2838708951F920F92A9
S11302600FB60F9211248F938091480684FF08C023
S11302708091480685FF02C082E007C081E005C086
S11302808091480685FF04C083E08093462002C025
S1130290109246208F910F900FBE0F901F901895CB
S11302A01F920F920FB60F9211240F900FBE0F9052
S11302B01F901895CF93DF9310924920CEE0D0E29F
S11302C00FC01F928F93DF93CF930E94940380916A
S11302D049208F5F809349200F900F900F900F90CB
S11302E0809149208A3068F3DF91CF9108958091FD
S11302F04F20883011F481E001C0880F80934F2093
S113030080914F200C9419020E9411010E94540202
S11303100E940B010E94D5000E940F020E942D0230
S11303200E9421010E9421028091A2008760809393
S1130330A2008FB780688FBF10924E200BC00E941E
S11303405A0182E190E20E94A80380914E208F5FBF
S113035080934E2080914E20853088F310924E2059
S113036088E080934F2084E1E82E80E2F82E01E2B9
S113037010E2C4E3D0E20E9477010E9438021F9287
S11303808F93FF92EF920E949403809148208F9361
S1130390809147208F9380914D208F9380914C20A2
S11303A08F9380914B208F9380914A208F931F933A
S11303B00F930E94940380914720909148200E94BB
S11303C0FD00B82EA92E80914C2090914D200E94C2
S11303D0EF00D82EC92E80914A2090914B200E9484
S11303E0E100AF92BF92CF92DF929F938F93DF93FE
S11303F0CF930E9494039FEF29E688E19150204017
S11304008040E1F700C0000080914E208F5F809310
S11304104E208DB79EB744968DBF9EBFACCFE0E80B
S1130420F6E08FE0818381E5808B818B828B838BE7
S11304300895E0E8F6E094818F70907F892B84839F
S1130440089581E0E0E4F6E08283E0E0F8E0808370
S113045083E08183128214820895E0E6F6E081EF5E
S1130460828389E5808B848B858B868B878B08952B
S1130470E0E6F6E080859085807F86958695869572
S11304809170892B08959091A10995FFFCCF8093D9
S1130490A00980E090E008958091A10987FFFCCF36
S11304A08091A00990E00895E0E6F6E088E0818379
S11304B084E08283E0EAF9E0138288E1848383E0C4
S11304C0858387ED868383E9878380E090E2809348
S11304D0522090935320809350209093512008955C
S11304E05058BB27AA270ED0E5C0D6D030F0DBD0B9
S11304F020F031F49F3F11F41EF4CBC00EF4E095CC
S1130500E7FBC1C0E92FE7D080F3BA17620773078E
S11305108407950718F071F49EF5FFC00EF4E0957A
S11305200B2EBA2FA02D0B01B90190010C01CA01A9
S1130530A0011124FF27591B99F0593F50F4503E54
S113054068F11A16F040A22F232F342F4427585F46
S1130550F3CF469537952795A795F0405395C9F75E
S11305607EF41F16BA0B620B730B840BBAF0915016
S1130570A1F0FF0FBB1F661F771F881FC2F70EC0B5
S1130580BA0F621F731F841F48F487957795679588
S1130590B795F7959E3F08F0B3CF9395880F08F071
S11305A09927EE0F97958795089504D06894B11113
S11305B0B5C0089598D088F09F5790F0B92F992727
S11305C0B751A0F0D1F0660F771F881F991F1AF05A
S11305D0BA95C9F712C0B13081F09FD0B1E0089547
S11305E09CC0672F782F8827B85F39F0B93FCCF3C8
S11305F0869577956795B395D9F73EF49095809550
S1130600709561957F4F8F4F9F4F0895E89409C06F
S113061097FB3EF490958095709561957F4F8F4F31
S11306209F4F9923A9F0F92F96E9BB279395F69547
S1130630879577956795B795F111F8CFFAF4BB0FC5
S113064011F460FF1BC06F5F7F4F8F4F9F4F16C029
S1130650882311F096E911C0772321F09EE8872FB3
S1130660762F05C0662371F096E8862F70E060E06F
S11306702AF09A95660F771F881FDAF7880F9695E8
S1130680879597F9089597F99F6780E870E060E08F
S113069008959FEF80EC089500240A941616170617
S11306A018060906089500240A941216130614065F
S11306B005060895092E0394000C11F4882352F0C2
S11306C0BB0F40F4BF2B11F460FF04C06F5F7F4F7A
S11306D08F4F9F4F089557FD9058440F551F59F061
S11306E05F3F71F04795880F97FB991F61F09F3F1B
S11306F079F087950895121613061406551FF2CF44
S11307004695F1DF08C0161617061806991FF1CF93
S113071086957105610508940895E894BB276627BA
S11307207727CB0197F90895A0E0B0E0EAE9F3E078
S11307300C946306FE01359661917191AF0180912D
S11307405220909153200E94D703E2E00C947C063F
S11307500F931F93CF93DF938C01E0915220F0917C
S11307605320838181FF1BC0C0E0D0E005C0099500
S1130770892B11F0CFEFDFEFF80181918F016091A8
S1130780522070915320DB011896ED91FC9119973A
S11307908111EDCF8AE00995892B09F402C0CFEFCE
S11307A0DFEFCE01DF91CF911F910F910895ACE05F
S11307B0B0E0EDEDF3E00C9453067C016B018A018B
S11307C0FC0116821782838181FFC6C18824839429
S11307D0912C8C0E9D1EF7019381F60193FD85915A
S11307E093FF81916F01882309F4B2C1853239F4F2
S11307F093FD859193FF81916F01853229F4B701AF
S113080090E00E94C905E7CF512C312C20E0203222
S1130810A8F48B3261F028F4803251F0833271F401
S11308200BC08D3239F0803349F4216028C0226036
S1130830246025C0286023C0206121C027FD27C073
S1130840382F30533A3078F426FF06C0FAE05F9E22
S1130850300D1124532E13C08AE0389E300D11241C
S1130860332E20620CC08E3221F426FD71C1206427
S113087006C08C3611F4206802C0883641F4F601B3
S113088093FD859193FF81916F018111C0CF982FC2
S11308909554933018F09052933028F40C5F1F4F06
S11308A0FFE3F9830DC0833631F0833771F083356C
S11308B009F05EC023C0F801808189830E5F1F4F59
S11308C044244394512C540115C03801F2E06F0EB6
S11308D0711CF801A080B18026FF03C0652D70E073
S11308E002C06FEF7FEFC5012C870E94BE052C016B
S11308F083012C856FE7262E222218C03801F2E0EE
S11309006F0E711CF801A080B18026FF03C0652D15
S113091070E002C06FEF7FEFC5012C870E94B30522
S11309202C012C8550E8252E222A830123FC1CC08F
S113093006C0B70180E290E00E94C9053A94832D75
S113094090E048165906A8F30FC0F50127FC8591DD
S113095027FE81915F01B70190E00E94C905311023
S11309603A94F1E04F1A51084114510471F7EDC063
S1130970843611F0893641F5F80127FF07C06081FC
S11309807181828193810C5F1F4F08C060817181E6
S1130990882777FD8095982F0E5F1F4F4FE6B42E62
S11309A0B22297FF09C090958095709561957F4F0D
S11309B08F4F9F4FF0E8BF2A2AE030E0A4010E9445
S11309C0F505A82EA81843C0853731F43FEEB32EA1
S11309D0B2222AE030E024C099EFB92EB2228F3639
S11309E0B9F020F4883509F0B3C00DC0803721F088
S11309F0883709F0ADC002C020E1B22AB4FE0BC0B2
S1130A0084E0B82A08C024FF09C0E6E0BE2A06C074
S1130A1028E030E005C020E130E002C020E132E00F
S1130A20F801B7FE07C060817181828193810C5FF8
S1130A301F4F06C06081718180E090E00E5F1F4F00
S1130A40A4010E94F505A82EA818FFE7BF22B6FE50
S1130A500BC02B2D2E7FA51450F4B4FE0AC0B2FC9B
S1130A6008C02B2D2E7E05C07A2C2B2D03C07A2C8A
S1130A7001C0752C24FF0DC0FE01EA0DF11D80811B
S1130A80803311F4297E09C022FF06C07394739445
S1130A9004C0822F867809F0739423FD14C020FFCC
S1130AA00FC05A2C731460F4530C5718732C08C0DD
S1130AB0B70180E290E02C870E94C90573942C85CD
S1130AC07314B0F304C0731410F4371801C0312C3C
S1130AD024FF12C0B70180E390E02C870E94C9056F
S1130AE02C8522FF1EC021FF03C088E590E002C0D0
S1130AF088E790E0B7010CC0822F867891F021FD41
S1130B0002C080E201C08BE227FD8DE2B70190E0D4
S1130B100E94C90506C0B70180E390E00E94C905A0
S1130B205A94A514C0F3AA94F401EA0DF11DB70177
S1130B30808190E00E94C905A110F5CF06C0B701DD
S1130B4080E290E00E94C9053A943110F8CF43CE78
S1130B50F7012681378102C02FEF3FEFC9012C96A0
S1130B60E2E10C946C06FC010590615070400110A8
S1130B70D8F7809590958E0F9F1F0895FC016150C2
S1130B80704001900110D8F7809590958E0F9F1FAB
S1130B9008950F931F93CF93DF938C01EB018B8107
S1130BA081FD03C00FEF1FEF1AC082FF0DC02E811D
S1130BB03F818C819D812817390764F4E881F9818C
S1130BC00193E883F98306C0E885F985802F0995A8
S1130BD0892B41F78E819F8101968E839F83C80163
S1130BE0DF91CF911F910F910895FA01AA27283020
S1130BF051F1203181F1E8946F936E7F6E5F7F4FE6
S1130C008F4F9F4FAF4FB1E03ED0B4E03CD0670F61
S1130C10781F891F9A1FA11D680F791F8A1F911DB4
S1130C20A11D6A0F711D811D911DA11D20D009F404
S1130C3068943F912AE0269F11243019305D319346
S1130C40DEF6CF010895462F4770405D4193B3E02F
S1130C500FD0C9F7F6CF462F4F70405D4A3318F0D6
S1130C60495D31FD4052419302D0A9F7EACFB4E087
S1130C70A6959795879577956795BA95C9F700973F
S1130C806105710508959B01AC010A2E06945795E0
S1130C90479537952795BA95C9F7620F731F841F37
S1130CA0951FA01D08952F923F924F925F926F92CD
S1130CB07F928F929F92AF92BF92CF92DF92EF92E8
S1130CC0FF920F931F93CF93DF93CDB7DEB7CA1B69
S1130CD0DB0BCDBFDEBF09942A88398848885F843E
S1130CE06E847D848C849B84AA84B984C884DF80C8
S1130CF0EE80FD800C811B81AA81B981CE0FD11DAC
S10F0D00CDBFDEBFED010895F894FFCFD5
S1130D0C000000020000000043024C0200002564B5
S1130D1C20000D00245357495443482025640D0AE0
S1130D2C0024414343524157202564202564202547
S1130D3C640D0A00244143435F5F2025642025642D
S1090D4C2025640D0A00DD
S9030000FC
